{
  "contractName": "cottonToken",
  "abi": [
    {
      "inputs": [
        {
          "internalType": "string",
          "name": "_name",
          "type": "string"
        },
        {
          "internalType": "string",
          "name": "_symbol",
          "type": "string"
        },
        {
          "internalType": "uint256",
          "name": "_initialSupply",
          "type": "uint256"
        },
        {
          "internalType": "string",
          "name": "form",
          "type": "string"
        },
        {
          "internalType": "string",
          "name": "certificate",
          "type": "string"
        }
      ],
      "stateMutability": "nonpayable",
      "type": "constructor"
    },
    {
      "anonymous": false,
      "inputs": [
        {
          "indexed": true,
          "internalType": "address",
          "name": "owner",
          "type": "address"
        },
        {
          "indexed": true,
          "internalType": "address",
          "name": "spender",
          "type": "address"
        },
        {
          "indexed": false,
          "internalType": "uint256",
          "name": "value",
          "type": "uint256"
        }
      ],
      "name": "Approval",
      "type": "event"
    },
    {
      "anonymous": false,
      "inputs": [
        {
          "indexed": false,
          "internalType": "address",
          "name": "sender",
          "type": "address"
        },
        {
          "indexed": false,
          "internalType": "address",
          "name": "recipient",
          "type": "address"
        },
        {
          "indexed": false,
          "internalType": "uint256",
          "name": "amount",
          "type": "uint256"
        },
        {
          "indexed": false,
          "internalType": "string",
          "name": "form",
          "type": "string"
        },
        {
          "indexed": false,
          "internalType": "string",
          "name": "certificate",
          "type": "string"
        },
        {
          "indexed": false,
          "internalType": "string",
          "name": "ref",
          "type": "string"
        }
      ],
      "name": "TraceCotton",
      "type": "event"
    },
    {
      "anonymous": false,
      "inputs": [
        {
          "indexed": true,
          "internalType": "address",
          "name": "from",
          "type": "address"
        },
        {
          "indexed": true,
          "internalType": "address",
          "name": "to",
          "type": "address"
        },
        {
          "indexed": false,
          "internalType": "uint256",
          "name": "value",
          "type": "uint256"
        }
      ],
      "name": "Transfer",
      "type": "event"
    },
    {
      "inputs": [
        {
          "internalType": "address",
          "name": "owner",
          "type": "address"
        },
        {
          "internalType": "address",
          "name": "spender",
          "type": "address"
        }
      ],
      "name": "allowance",
      "outputs": [
        {
          "internalType": "uint256",
          "name": "",
          "type": "uint256"
        }
      ],
      "stateMutability": "view",
      "type": "function",
      "constant": true
    },
    {
      "inputs": [
        {
          "internalType": "address",
          "name": "spender",
          "type": "address"
        },
        {
          "internalType": "uint256",
          "name": "amount",
          "type": "uint256"
        }
      ],
      "name": "approve",
      "outputs": [
        {
          "internalType": "bool",
          "name": "",
          "type": "bool"
        }
      ],
      "stateMutability": "nonpayable",
      "type": "function"
    },
    {
      "inputs": [
        {
          "internalType": "address",
          "name": "account",
          "type": "address"
        }
      ],
      "name": "balanceOf",
      "outputs": [
        {
          "internalType": "uint256",
          "name": "",
          "type": "uint256"
        }
      ],
      "stateMutability": "view",
      "type": "function",
      "constant": true
    },
    {
      "inputs": [
        {
          "internalType": "address",
          "name": "",
          "type": "address"
        },
        {
          "internalType": "string",
          "name": "",
          "type": "string"
        },
        {
          "internalType": "string",
          "name": "",
          "type": "string"
        }
      ],
      "name": "cotton",
      "outputs": [
        {
          "internalType": "uint256",
          "name": "balance",
          "type": "uint256"
        }
      ],
      "stateMutability": "view",
      "type": "function",
      "constant": true
    },
    {
      "inputs": [],
      "name": "decimals",
      "outputs": [
        {
          "internalType": "uint8",
          "name": "",
          "type": "uint8"
        }
      ],
      "stateMutability": "view",
      "type": "function",
      "constant": true
    },
    {
      "inputs": [
        {
          "internalType": "address",
          "name": "spender",
          "type": "address"
        },
        {
          "internalType": "uint256",
          "name": "subtractedValue",
          "type": "uint256"
        }
      ],
      "name": "decreaseAllowance",
      "outputs": [
        {
          "internalType": "bool",
          "name": "",
          "type": "bool"
        }
      ],
      "stateMutability": "nonpayable",
      "type": "function"
    },
    {
      "inputs": [
        {
          "internalType": "address",
          "name": "spender",
          "type": "address"
        },
        {
          "internalType": "uint256",
          "name": "addedValue",
          "type": "uint256"
        }
      ],
      "name": "increaseAllowance",
      "outputs": [
        {
          "internalType": "bool",
          "name": "",
          "type": "bool"
        }
      ],
      "stateMutability": "nonpayable",
      "type": "function"
    },
    {
      "inputs": [],
      "name": "name",
      "outputs": [
        {
          "internalType": "string",
          "name": "",
          "type": "string"
        }
      ],
      "stateMutability": "view",
      "type": "function",
      "constant": true
    },
    {
      "inputs": [],
      "name": "symbol",
      "outputs": [
        {
          "internalType": "string",
          "name": "",
          "type": "string"
        }
      ],
      "stateMutability": "view",
      "type": "function",
      "constant": true
    },
    {
      "inputs": [],
      "name": "totalSupply",
      "outputs": [
        {
          "internalType": "uint256",
          "name": "",
          "type": "uint256"
        }
      ],
      "stateMutability": "view",
      "type": "function",
      "constant": true
    },
    {
      "inputs": [
        {
          "internalType": "address",
          "name": "recipient",
          "type": "address"
        },
        {
          "internalType": "uint256",
          "name": "amount",
          "type": "uint256"
        },
        {
          "internalType": "string",
          "name": "form",
          "type": "string"
        },
        {
          "internalType": "string",
          "name": "certificate",
          "type": "string"
        },
        {
          "internalType": "string",
          "name": "ref",
          "type": "string"
        }
      ],
      "name": "transfer",
      "outputs": [
        {
          "internalType": "bool",
          "name": "",
          "type": "bool"
        }
      ],
      "stateMutability": "nonpayable",
      "type": "function"
    },
    {
      "inputs": [
        {
          "internalType": "address",
          "name": "recipient",
          "type": "address"
        },
        {
          "internalType": "uint256",
          "name": "amount",
          "type": "uint256"
        }
      ],
      "name": "transfer",
      "outputs": [
        {
          "internalType": "bool",
          "name": "",
          "type": "bool"
        }
      ],
      "stateMutability": "nonpayable",
      "type": "function"
    },
    {
      "inputs": [
        {
          "internalType": "address",
          "name": "sender",
          "type": "address"
        },
        {
          "internalType": "address",
          "name": "recipient",
          "type": "address"
        },
        {
          "internalType": "uint256",
          "name": "amount",
          "type": "uint256"
        }
      ],
      "name": "transferFrom",
      "outputs": [
        {
          "internalType": "bool",
          "name": "",
          "type": "bool"
        }
      ],
      "stateMutability": "nonpayable",
      "type": "function"
    },
    {
      "inputs": [
        {
          "internalType": "address",
          "name": "sender",
          "type": "address"
        },
        {
          "internalType": "address",
          "name": "recipient",
          "type": "address"
        },
        {
          "internalType": "uint256",
          "name": "amount",
          "type": "uint256"
        },
        {
          "internalType": "string",
          "name": "form",
          "type": "string"
        },
        {
          "internalType": "string",
          "name": "certificate",
          "type": "string"
        },
        {
          "internalType": "string",
          "name": "ref",
          "type": "string"
        }
      ],
      "name": "transferFrom",
      "outputs": [
        {
          "internalType": "bool",
          "name": "",
          "type": "bool"
        }
      ],
      "stateMutability": "nonpayable",
      "type": "function"
    }
  ],
  "bytecode": "0x60806040523480156200001157600080fd5b50604051620027ce380380620027ce83398181016040528101906200003791906200040e565b8484816003908051906020019062000051929190620002d5565b5080600490805190602001906200006a929190620002d5565b50505060008311620000b3576040517f08c379a0000000000000000000000000000000000000000000000000000000008152600401620000aa90620005ff565b60405180910390fd5b620000c733848484620000d260201b60201c565b505050505062000868565b600073ffffffffffffffffffffffffffffffffffffffff168473ffffffffffffffffffffffffffffffffffffffff16141562000145576040517f08c379a00000000000000000000000000000000000000000000000000000000081526004016200013c9062000621565b60405180910390fd5b6200015960008585620002d060201b60201c565b82600260008282546200016d9190620006ee565b92505081905550826000808673ffffffffffffffffffffffffffffffffffffffff1673ffffffffffffffffffffffffffffffffffffffff1681526020019081526020016000206000828254620001c49190620006ee565b9250508190555082600560008673ffffffffffffffffffffffffffffffffffffffff1673ffffffffffffffffffffffffffffffffffffffff168152602001908152602001600020836040516200021b9190620005e6565b908152602001604051809103902082604051620002399190620005e6565b908152602001604051809103902060000160008282546200025b9190620006ee565b925050819055508373ffffffffffffffffffffffffffffffffffffffff16600073ffffffffffffffffffffffffffffffffffffffff167fddf252ad1be2c89b69c2b068fc378daa952ba7f163c4a11628f55a4df523b3ef85604051620002c2919062000643565b60405180910390a350505050565b505050565b828054620002e3906200078b565b90600052602060002090601f01602090048101928262000307576000855562000353565b82601f106200032257805160ff191683800117855562000353565b8280016001018555821562000353579182015b828111156200035257825182559160200191906001019062000335565b5b50905062000362919062000366565b5090565b5b808211156200038157600081600090555060010162000367565b5090565b60006200039c620003968462000694565b62000660565b905082815260208101848484011115620003b557600080fd5b620003c284828562000755565b509392505050565b600082601f830112620003dc57600080fd5b8151620003ee84826020860162000385565b91505092915050565b60008151905062000408816200084e565b92915050565b600080600080600060a086880312156200042757600080fd5b600086015167ffffffffffffffff8111156200044257600080fd5b6200045088828901620003ca565b955050602086015167ffffffffffffffff8111156200046e57600080fd5b6200047c88828901620003ca565b94505060406200048f88828901620003f7565b935050606086015167ffffffffffffffff811115620004ad57600080fd5b620004bb88828901620003ca565b925050608086015167ffffffffffffffff811115620004d957600080fd5b620004e788828901620003ca565b9150509295509295909350565b60006200050182620006c7565b6200050d8185620006e3565b93506200051f81856020860162000755565b80840191505092915050565b60006200053a602783620006d2565b91507f494e495449414c5f535550504c592068617320746f206265206772656174657260008301527f207468616e2030000000000000000000000000000000000000000000000000006020830152604082019050919050565b6000620005a2601f83620006d2565b91507f45524332303a206d696e7420746f20746865207a65726f2061646472657373006000830152602082019050919050565b620005e0816200074b565b82525050565b6000620005f48284620004f4565b915081905092915050565b600060208201905081810360008301526200061a816200052b565b9050919050565b600060208201905081810360008301526200063c8162000593565b9050919050565b60006020820190506200065a6000830184620005d5565b92915050565b6000604051905081810181811067ffffffffffffffff821117156200068a57620006896200081f565b5b8060405250919050565b600067ffffffffffffffff821115620006b257620006b16200081f565b5b601f19601f8301169050602081019050919050565b600081519050919050565b600082825260208201905092915050565b600081905092915050565b6000620006fb826200074b565b915062000708836200074b565b9250827fffffffffffffffffffffffffffffffffffffffffffffffffffffffffffffffff0382111562000740576200073f620007c1565b5b828201905092915050565b6000819050919050565b60005b838110156200077557808201518184015260208101905062000758565b8381111562000785576000848401525b50505050565b60006002820490506001821680620007a457607f821691505b60208210811415620007bb57620007ba620007f0565b5b50919050565b7f4e487b7100000000000000000000000000000000000000000000000000000000600052601160045260246000fd5b7f4e487b7100000000000000000000000000000000000000000000000000000000600052602260045260246000fd5b7f4e487b7100000000000000000000000000000000000000000000000000000000600052604160045260246000fd5b62000859816200074b565b81146200086557600080fd5b50565b611f5680620008786000396000f3fe608060405234801561001057600080fd5b50600436106100ea5760003560e01c806363aa10741161008c57806395d89b411161006657806395d89b4114610299578063a457c2d7146102b7578063a9059cbb146102e7578063dd62ed3e14610317576100ea565b806363aa10741461020957806370a0823114610239578063754091e714610269576100ea565b806323b872dd116100c857806323b872dd1461015b578063313ce5671461018b57806339509351146101a957806357530911146101d9576100ea565b806306fdde03146100ef578063095ea7b31461010d57806318160ddd1461013d575b600080fd5b6100f7610347565b6040516101049190611b01565b60405180910390f35b61012760048036038101906101229190611548565b6103d9565b6040516101349190611ae6565b60405180910390f35b6101456103f7565b6040516101529190611c43565b60405180910390f35b610175600480360381019061017091906113a9565b610401565b6040516101829190611ae6565b60405180910390f35b610193610502565b6040516101a09190611c5e565b60405180910390f35b6101c360048036038101906101be9190611548565b61050b565b6040516101d09190611ae6565b60405180910390f35b6101f360048036038101906101ee91906114c9565b6105b7565b6040516102009190611c43565b60405180910390f35b610223600480360381019061021e91906113f8565b61061b565b6040516102309190611ae6565b60405180910390f35b610253600480360381019061024e9190611344565b610722565b6040516102609190611c43565b60405180910390f35b610283600480360381019061027e9190611584565b61076a565b6040516102909190611ae6565b60405180910390f35b6102a161078e565b6040516102ae9190611b01565b60405180910390f35b6102d160048036038101906102cc9190611548565b610820565b6040516102de9190611ae6565b60405180910390f35b61030160048036038101906102fc9190611548565b610914565b60405161030e9190611ae6565b60405180910390f35b610331600480360381019061032c919061136d565b610932565b60405161033e9190611c43565b60405180910390f35b60606003805461035690611e22565b80601f016020809104026020016040519081016040528092919081815260200182805461038290611e22565b80156103cf5780601f106103a4576101008083540402835291602001916103cf565b820191906000526020600020905b8154815290600101906020018083116103b257829003601f168201915b5050505050905090565b60006103ed6103e66109b9565b84846109c1565b6001905092915050565b6000600254905090565b600061040e848484610b8c565b6000600160008673ffffffffffffffffffffffffffffffffffffffff1673ffffffffffffffffffffffffffffffffffffffff16815260200190815260200160002060006104596109b9565b73ffffffffffffffffffffffffffffffffffffffff1673ffffffffffffffffffffffffffffffffffffffff168152602001908152602001600020549050828110156104d9576040517f08c379a00000000000000000000000000000000000000000000000000000000081526004016104d090611ba3565b60405180910390fd5b6104f6856104e56109b9565b85846104f19190611d57565b6109c1565b60019150509392505050565b60006012905090565b60006105ad6105186109b9565b8484600160006105266109b9565b73ffffffffffffffffffffffffffffffffffffffff1673ffffffffffffffffffffffffffffffffffffffff16815260200190815260200160002060008873ffffffffffffffffffffffffffffffffffffffff1673ffffffffffffffffffffffffffffffffffffffff168152602001908152602001600020546105a89190611d01565b6109c1565b6001905092915050565b6005602052826000526040600020828051602081018201805184825260208301602085012081835280955050505050508180516020810182018051848252602083016020850120818352809550505050505060009250925050508060000154905081565b600061062b878787878787610e0b565b6000600160008973ffffffffffffffffffffffffffffffffffffffff1673ffffffffffffffffffffffffffffffffffffffff16815260200190815260200160002060006106766109b9565b73ffffffffffffffffffffffffffffffffffffffff1673ffffffffffffffffffffffffffffffffffffffff168152602001908152602001600020549050858110156106f6576040517f08c379a00000000000000000000000000000000000000000000000000000000081526004016106ed90611c23565b60405180910390fd5b610713886107026109b9565b888461070e9190611d57565b6109c1565b60019150509695505050505050565b60008060008373ffffffffffffffffffffffffffffffffffffffff1673ffffffffffffffffffffffffffffffffffffffff168152602001908152602001600020549050919050565b60006107816107776109b9565b8787878787610e0b565b6001905095945050505050565b60606004805461079d90611e22565b80601f01602080910402602001604051908101604052809291908181526020018280546107c990611e22565b80156108165780601f106107eb57610100808354040283529160200191610816565b820191906000526020600020905b8154815290600101906020018083116107f957829003601f168201915b5050505050905090565b6000806001600061082f6109b9565b73ffffffffffffffffffffffffffffffffffffffff1673ffffffffffffffffffffffffffffffffffffffff16815260200190815260200160002060008573ffffffffffffffffffffffffffffffffffffffff1673ffffffffffffffffffffffffffffffffffffffff168152602001908152602001600020549050828110156108ec576040517f08c379a00000000000000000000000000000000000000000000000000000000081526004016108e390611c03565b60405180910390fd5b6109096108f76109b9565b8585846109049190611d57565b6109c1565b600191505092915050565b60006109286109216109b9565b8484610b8c565b6001905092915050565b6000600160008473ffffffffffffffffffffffffffffffffffffffff1673ffffffffffffffffffffffffffffffffffffffff16815260200190815260200160002060008373ffffffffffffffffffffffffffffffffffffffff1673ffffffffffffffffffffffffffffffffffffffff16815260200190815260200160002054905092915050565b600033905090565b600073ffffffffffffffffffffffffffffffffffffffff168373ffffffffffffffffffffffffffffffffffffffff161415610a31576040517f08c379a0000000000000000000000000000000000000000000000000000000008152600401610a2890611be3565b60405180910390fd5b600073ffffffffffffffffffffffffffffffffffffffff168273ffffffffffffffffffffffffffffffffffffffff161415610aa1576040517f08c379a0000000000000000000000000000000000000000000000000000000008152600401610a9890611b43565b60405180910390fd5b80600160008573ffffffffffffffffffffffffffffffffffffffff1673ffffffffffffffffffffffffffffffffffffffff16815260200190815260200160002060008473ffffffffffffffffffffffffffffffffffffffff1673ffffffffffffffffffffffffffffffffffffffff168152602001908152602001600020819055508173ffffffffffffffffffffffffffffffffffffffff168373ffffffffffffffffffffffffffffffffffffffff167f8c5be1e5ebec7d5bd14f71427d1e84f3dd0314c0f7b2291e5b200ac8c7c3b92583604051610b7f9190611c43565b60405180910390a3505050565b600073ffffffffffffffffffffffffffffffffffffffff168373ffffffffffffffffffffffffffffffffffffffff161415610bfc576040517f08c379a0000000000000000000000000000000000000000000000000000000008152600401610bf390611bc3565b60405180910390fd5b600073ffffffffffffffffffffffffffffffffffffffff168273ffffffffffffffffffffffffffffffffffffffff161415610c6c576040517f08c379a0000000000000000000000000000000000000000000000000000000008152600401610c6390611b23565b60405180910390fd5b610c778383836112ad565b60008060008573ffffffffffffffffffffffffffffffffffffffff1673ffffffffffffffffffffffffffffffffffffffff16815260200190815260200160002054905081811015610cfd576040517f08c379a0000000000000000000000000000000000000000000000000000000008152600401610cf490611b63565b60405180910390fd5b8181610d099190611d57565b6000808673ffffffffffffffffffffffffffffffffffffffff1673ffffffffffffffffffffffffffffffffffffffff16815260200190815260200160002081905550816000808573ffffffffffffffffffffffffffffffffffffffff1673ffffffffffffffffffffffffffffffffffffffff1681526020019081526020016000206000828254610d999190611d01565b925050819055508273ffffffffffffffffffffffffffffffffffffffff168473ffffffffffffffffffffffffffffffffffffffff167fddf252ad1be2c89b69c2b068fc378daa952ba7f163c4a11628f55a4df523b3ef84604051610dfd9190611c43565b60405180910390a350505050565b600073ffffffffffffffffffffffffffffffffffffffff168673ffffffffffffffffffffffffffffffffffffffff161415610e7b576040517f08c379a0000000000000000000000000000000000000000000000000000000008152600401610e7290611bc3565b60405180910390fd5b600073ffffffffffffffffffffffffffffffffffffffff168573ffffffffffffffffffffffffffffffffffffffff161415610eeb576040517f08c379a0000000000000000000000000000000000000000000000000000000008152600401610ee290611b23565b60405180910390fd5b83600560008873ffffffffffffffffffffffffffffffffffffffff1673ffffffffffffffffffffffffffffffffffffffff16815260200190815260200160002084604051610f399190611a59565b908152602001604051809103902083604051610f559190611a59565b9081526020016040518091039020600001541015610fa8576040517f08c379a0000000000000000000000000000000000000000000000000000000008152600401610f9f90611b83565b60405180910390fd5b610fb38686866112ad565b60008060008873ffffffffffffffffffffffffffffffffffffffff1673ffffffffffffffffffffffffffffffffffffffff16815260200190815260200160002054905084811015611039576040517f08c379a000000000000000000000000000000000000000000000000000000000815260040161103090611b63565b60405180910390fd5b84816110459190611d57565b6000808973ffffffffffffffffffffffffffffffffffffffff1673ffffffffffffffffffffffffffffffffffffffff16815260200190815260200160002081905550846000808873ffffffffffffffffffffffffffffffffffffffff1673ffffffffffffffffffffffffffffffffffffffff16815260200190815260200160002060008282546110d59190611d01565b9250508190555084600560008973ffffffffffffffffffffffffffffffffffffffff1673ffffffffffffffffffffffffffffffffffffffff1681526020019081526020016000208560405161112a9190611a59565b9081526020016040518091039020846040516111469190611a59565b908152602001604051809103902060000160008282546111669190611d57565b9250508190555084600560008873ffffffffffffffffffffffffffffffffffffffff1673ffffffffffffffffffffffffffffffffffffffff168152602001908152602001600020856040516111bb9190611a59565b9081526020016040518091039020846040516111d79190611a59565b908152602001604051809103902060000160008282546111f79190611d01565b925050819055508573ffffffffffffffffffffffffffffffffffffffff168773ffffffffffffffffffffffffffffffffffffffff167fddf252ad1be2c89b69c2b068fc378daa952ba7f163c4a11628f55a4df523b3ef8760405161125b9190611c43565b60405180910390a37fb17674749886acce2552c0ddc1342624b6f18242ac53b5fb28c83cc607311d4587878787878760405161129c96959493929190611a70565b60405180910390a150505050505050565b505050565b60006112c56112c084611caa565b611c79565b9050828152602081018484840111156112dd57600080fd5b6112e8848285611de0565b509392505050565b6000813590506112ff81611ef2565b92915050565b600082601f83011261131657600080fd5b81356113268482602086016112b2565b91505092915050565b60008135905061133e81611f09565b92915050565b60006020828403121561135657600080fd5b6000611364848285016112f0565b91505092915050565b6000806040838503121561138057600080fd5b600061138e858286016112f0565b925050602061139f858286016112f0565b9150509250929050565b6000806000606084860312156113be57600080fd5b60006113cc868287016112f0565b93505060206113dd868287016112f0565b92505060406113ee8682870161132f565b9150509250925092565b60008060008060008060c0878903121561141157600080fd5b600061141f89828a016112f0565b965050602061143089828a016112f0565b955050604061144189828a0161132f565b945050606087013567ffffffffffffffff81111561145e57600080fd5b61146a89828a01611305565b935050608087013567ffffffffffffffff81111561148757600080fd5b61149389828a01611305565b92505060a087013567ffffffffffffffff8111156114b057600080fd5b6114bc89828a01611305565b9150509295509295509295565b6000806000606084860312156114de57600080fd5b60006114ec868287016112f0565b935050602084013567ffffffffffffffff81111561150957600080fd5b61151586828701611305565b925050604084013567ffffffffffffffff81111561153257600080fd5b61153e86828701611305565b9150509250925092565b6000806040838503121561155b57600080fd5b6000611569858286016112f0565b925050602061157a8582860161132f565b9150509250929050565b600080600080600060a0868803121561159c57600080fd5b60006115aa888289016112f0565b95505060206115bb8882890161132f565b945050604086013567ffffffffffffffff8111156115d857600080fd5b6115e488828901611305565b935050606086013567ffffffffffffffff81111561160157600080fd5b61160d88828901611305565b925050608086013567ffffffffffffffff81111561162a57600080fd5b61163688828901611305565b9150509295509295909350565b61164c81611d8b565b82525050565b61165b81611d9d565b82525050565b600061166c82611cda565b6116768185611ce5565b9350611686818560208601611def565b61168f81611ee1565b840191505092915050565b60006116a582611cda565b6116af8185611cf6565b93506116bf818560208601611def565b80840191505092915050565b60006116d8602383611ce5565b91507f45524332303a207472616e7366657220746f20746865207a65726f206164647260008301527f65737300000000000000000000000000000000000000000000000000000000006020830152604082019050919050565b600061173e602283611ce5565b91507f45524332303a20617070726f766520746f20746865207a65726f20616464726560008301527f73730000000000000000000000000000000000000000000000000000000000006020830152604082019050919050565b60006117a4602683611ce5565b91507f45524332303a207472616e7366657220616d6f756e742065786365656473206260008301527f616c616e636500000000000000000000000000000000000000000000000000006020830152604082019050919050565b600061180a601f83611ce5565b91507f53656e64657220646f65736e74206861766520656e6f756768206173736574006000830152602082019050919050565b600061184a602883611ce5565b91507f45524332303a207472616e7366657220616d6f756e742065786365656473206160008301527f6c6c6f77616e63650000000000000000000000000000000000000000000000006020830152604082019050919050565b60006118b0602583611ce5565b91507f45524332303a207472616e736665722066726f6d20746865207a65726f20616460008301527f64726573730000000000000000000000000000000000000000000000000000006020830152604082019050919050565b6000611916602483611ce5565b91507f45524332303a20617070726f76652066726f6d20746865207a65726f2061646460008301527f72657373000000000000000000000000000000000000000000000000000000006020830152604082019050919050565b600061197c602583611ce5565b91507f45524332303a2064656372656173656420616c6c6f77616e63652062656c6f7760008301527f207a65726f0000000000000000000000000000000000000000000000000000006020830152604082019050919050565b60006119e2603783611ce5565b91507f436f74746f6e20546f6b656e20284552433230293a207472616e73666572206160008301527f6d6f756e74206578636565647320616c6c6f77616e63650000000000000000006020830152604082019050919050565b611a4481611dc9565b82525050565b611a5381611dd3565b82525050565b6000611a65828461169a565b915081905092915050565b600060c082019050611a856000830189611643565b611a926020830188611643565b611a9f6040830187611a3b565b8181036060830152611ab18186611661565b90508181036080830152611ac58185611661565b905081810360a0830152611ad98184611661565b9050979650505050505050565b6000602082019050611afb6000830184611652565b92915050565b60006020820190508181036000830152611b1b8184611661565b905092915050565b60006020820190508181036000830152611b3c816116cb565b9050919050565b60006020820190508181036000830152611b5c81611731565b9050919050565b60006020820190508181036000830152611b7c81611797565b9050919050565b60006020820190508181036000830152611b9c816117fd565b9050919050565b60006020820190508181036000830152611bbc8161183d565b9050919050565b60006020820190508181036000830152611bdc816118a3565b9050919050565b60006020820190508181036000830152611bfc81611909565b9050919050565b60006020820190508181036000830152611c1c8161196f565b9050919050565b60006020820190508181036000830152611c3c816119d5565b9050919050565b6000602082019050611c586000830184611a3b565b92915050565b6000602082019050611c736000830184611a4a565b92915050565b6000604051905081810181811067ffffffffffffffff82111715611ca057611c9f611eb2565b5b8060405250919050565b600067ffffffffffffffff821115611cc557611cc4611eb2565b5b601f19601f8301169050602081019050919050565b600081519050919050565b600082825260208201905092915050565b600081905092915050565b6000611d0c82611dc9565b9150611d1783611dc9565b9250827fffffffffffffffffffffffffffffffffffffffffffffffffffffffffffffffff03821115611d4c57611d4b611e54565b5b828201905092915050565b6000611d6282611dc9565b9150611d6d83611dc9565b925082821015611d8057611d7f611e54565b5b828203905092915050565b6000611d9682611da9565b9050919050565b60008115159050919050565b600073ffffffffffffffffffffffffffffffffffffffff82169050919050565b6000819050919050565b600060ff82169050919050565b82818337600083830152505050565b60005b83811015611e0d578082015181840152602081019050611df2565b83811115611e1c576000848401525b50505050565b60006002820490506001821680611e3a57607f821691505b60208210811415611e4e57611e4d611e83565b5b50919050565b7f4e487b7100000000000000000000000000000000000000000000000000000000600052601160045260246000fd5b7f4e487b7100000000000000000000000000000000000000000000000000000000600052602260045260246000fd5b7f4e487b7100000000000000000000000000000000000000000000000000000000600052604160045260246000fd5b6000601f19601f8301169050919050565b611efb81611d8b565b8114611f0657600080fd5b50565b611f1281611dc9565b8114611f1d57600080fd5b5056fea264697066735822122034f3cc4337a3fa5e6092e2ffed5c547f34ef21ec1a61019bd66ea7f36267df2264736f6c63430008000033",
  "immutableReferences": {},
  "source": "// SPDX-License-Identifier: MIT\n\npragma solidity ^0.8.0;\n\nimport \"../node_modules/@openzeppelin/contracts/token/ERC20/ERC20.sol\";\nimport '../node_modules/@openzeppelin/contracts/utils/math/SafeMath.sol';\n\n\ncontract cottonToken is ERC20 {\n\n    struct Cotton{\n        uint256 balance;                // Always in net kilograms\n        //string form;                  // Defines the form of the material, e.i. yarn, fabric etc.\n        //address producer;             // Address of the producer\n        //string certificate;           // Control Union certificate\n        //uint256 certificateDoc;       // IPFS - Control Union certificate (PDF only)\n        //uint256 transportDoc;         // IPFS - Transport document (PDF only)\n        //uint256 invoiceDoc;           // IPFS - Invoice (PDF only)\n        //uint256 hash;                 // Previous transaction\n    }\n    /*\n\n    U - unsigned (meaning this type can only represent positive integers, not positive and negative integers)\n    INT - integer\n    256 - 256 bits in size (256 bits = 32 bytes = 32 characters)\n    address: Holds a 20 byte value (size of an Ethereum address).\n    address payable: Same as address, but with the additional members transfer and send.\n    */\n/*\n    enum form{ cotton, spun, yarn, fabric, garment }\n    enum Certificate{ Regular, GOTS, OCS, BCI, CmiA }\n*/\n\n    mapping(address => mapping (string => mapping (string=>Cotton))) public cotton;\n\n/*\n    transferHash = keccak256(balance,transportDoc,invoiceDoc,certificateDoc,certificate);\n    cotton[sender][form][certificate].balance\n    cotton[sender][form][certificate].transportDoc\n    cotton[sender][form][certificate].invoiceDoc\n    cotton[sender][form][certificate].certificateDoc\n*/\n\n    event TraceCotton(\n                address sender,\n                address recipient,\n                uint256 amount,\n                string form,\n                string certificate,\n                string ref\n    );\n    //event Transfer(address sender, address recipient, uint256 amount);\n\n    constructor(string memory _name, string memory _symbol, uint256 _initialSupply, string memory form, string memory certificate)\n    ERC20(_name, _symbol) {\n        require(_initialSupply > 0, \"INITIAL_SUPPLY has to be greater than 0\");\n        _mint(msg.sender, _initialSupply, form, certificate);\n\n    }\n    /**\n     * @dev See {IERC20-transfer}.\n     *\n     * Requirements:\n     *\n     * - `recipient` cannot be the zero address.\n     * - the caller must have a balance of at least `amount`.\n     */\n    function transfer(\n            address recipient,\n            uint256 amount,\n            string memory form,\n            string memory certificate,\n            string memory ref\n            ) public virtual returns (bool) {\n                _transfer(_msgSender(), recipient, amount, form, certificate, ref);\n                return true;\n    }\n\n    /**\n    * @dev See {IERC20-transferFrom}.\n    *\n    * Emits an {Approval} event indicating the updated allowance. This is not\n    * required by the EIP. See the note at the beginning of {ERC20}.\n    *\n    * Requirements:\n    *\n    * - `sender` and `recipient` cannot be the zero address.\n    * - `sender` must have a balance of at least `amount`.\n    * - the caller must have allowance for ``sender``'s tokens of at least\n    * `amount`.\n    */\n    function transferFrom(\n            address sender,\n            address recipient,\n            uint256 amount,\n            string memory form,\n            string memory certificate,\n            string memory ref\n            ) public virtual returns (bool) {\n\n                _transfer(sender, recipient, amount, form, certificate, ref);\n\n                uint256 currentAllowance = _allowances[sender][_msgSender()];\n                require(currentAllowance >= amount, \"Cotton Token (ERC20): transfer amount exceeds allowance\");\n                _approve(sender, _msgSender(), currentAllowance - amount);\n\n                return true;\n    }\n\n    /**\n    * @dev Moves tokens `amount` from `sender` to `recipient`.\n    *\n    * This is internal function is equivalent to {transfer}, and can be used to\n    * e.g. implement automatic token fees, slashing mechanisms, etc.\n    *\n    * Emits a {Transfer} event.\n    *\n    * Requirements:\n    *\n    * - `sender` cannot be the zero address.\n    * - `recipient` cannot be the zero address.\n    * - `sender` must have a balance of at least `amount`.\n    */\n    function _transfer(\n            address sender,\n            address recipient,\n            uint256 amount,\n            string memory form,\n            string memory certificate,\n            string memory ref\n            ) internal {\n                require(sender != address(0), \"ERC20: transfer from the zero address\");\n                require(recipient != address(0), \"ERC20: transfer to the zero address\");\n\n                // Cotton require checks\n                    require(cotton[sender][form][certificate].balance >= amount, 'Sender doesnt have enough asset');\n                // Cotton require checks\n\n                _beforeTokenTransfer(sender, recipient, amount);\n\n                uint256 senderBalance = _balances[sender];\n                require(senderBalance >= amount, \"ERC20: transfer amount exceeds balance\");\n                _balances[sender] = senderBalance - amount;\n                _balances[recipient] += amount;\n\n                // Cotton Balance\n                // cotton[sender][form][certificate].balance\n                // bytes32 transferHash = keccak256(abi.encodePacked(form,certificate,amount));\n                cotton[sender][form][certificate].balance -= amount;\n                cotton[recipient][form][certificate].balance += amount;\n\n                emit Transfer(sender, recipient, amount);\n                emit TraceCotton(sender, recipient, amount, form, certificate, ref);\n    }\n\n    /** @dev Creates `amount` tokens and assigns them to `account`, increasing\n     * the total supply.\n     *\n     * Emits a {Transfer} event with `from` set to the zero address.\n     *\n     * Requirements:\n     *\n     * - `to` cannot be the zero address.\n     */\n    function _mint(address account, uint256 amount, string memory form, string memory certificate) internal virtual {\n        require(account != address(0), \"ERC20: mint to the zero address\");\n\n        _beforeTokenTransfer(address(0), account, amount);\n\n        _totalSupply += amount;\n        _balances[account] += amount;\n\n        // Cotton Balance\n        cotton[account][form][certificate].balance += amount;\n\n        emit Transfer(address(0), account, amount);\n    }\n\n}",
  "sourcePath": "/Users/iberat/TexTraceDigital/contracts/cottonToken.sol",
  "compiler": {
    "name": "solc",
    "version": "0.8.0+commit.c7dfd78e.Emscripten.clang"
  },
  "schemaVersion": "3.4.1",
  "updatedAt": "2021-06-27T12:34:59.783Z",
  "networkType": "ethereum",
  "devdoc": {
    "kind": "dev",
    "methods": {
      "allowance(address,address)": {
        "details": "See {IERC20-allowance}."
      },
      "approve(address,uint256)": {
        "details": "See {IERC20-approve}. Requirements: - `spender` cannot be the zero address."
      },
      "balanceOf(address)": {
        "details": "See {IERC20-balanceOf}."
      },
      "decimals()": {
        "details": "Returns the number of decimals used to get its user representation. For example, if `decimals` equals `2`, a balance of `505` tokens should be displayed to a user as `5,05` (`505 / 10 ** 2`). Tokens usually opt for a value of 18, imitating the relationship between Ether and Wei. This is the value {ERC20} uses, unless this function is overridden; NOTE: This information is only used for _display_ purposes: it in no way affects any of the arithmetic of the contract, including {IERC20-balanceOf} and {IERC20-transfer}."
      },
      "decreaseAllowance(address,uint256)": {
        "details": "Atomically decreases the allowance granted to `spender` by the caller. This is an alternative to {approve} that can be used as a mitigation for problems described in {IERC20-approve}. Emits an {Approval} event indicating the updated allowance. Requirements: - `spender` cannot be the zero address. - `spender` must have allowance for the caller of at least `subtractedValue`."
      },
      "increaseAllowance(address,uint256)": {
        "details": "Atomically increases the allowance granted to `spender` by the caller. This is an alternative to {approve} that can be used as a mitigation for problems described in {IERC20-approve}. Emits an {Approval} event indicating the updated allowance. Requirements: - `spender` cannot be the zero address."
      },
      "name()": {
        "details": "Returns the name of the token."
      },
      "symbol()": {
        "details": "Returns the symbol of the token, usually a shorter version of the name."
      },
      "totalSupply()": {
        "details": "See {IERC20-totalSupply}."
      },
      "transfer(address,uint256)": {
        "details": "See {IERC20-transfer}. Requirements: - `recipient` cannot be the zero address. - the caller must have a balance of at least `amount`."
      },
      "transfer(address,uint256,string,string,string)": {
        "details": "See {IERC20-transfer}. Requirements: - `recipient` cannot be the zero address. - the caller must have a balance of at least `amount`."
      },
      "transferFrom(address,address,uint256)": {
        "details": "See {IERC20-transferFrom}. Emits an {Approval} event indicating the updated allowance. This is not required by the EIP. See the note at the beginning of {ERC20}. Requirements: - `sender` and `recipient` cannot be the zero address. - `sender` must have a balance of at least `amount`. - the caller must have allowance for ``sender``'s tokens of at least `amount`."
      },
      "transferFrom(address,address,uint256,string,string,string)": {
        "details": "See {IERC20-transferFrom}. Emits an {Approval} event indicating the updated allowance. This is not required by the EIP. See the note at the beginning of {ERC20}. Requirements: - `sender` and `recipient` cannot be the zero address. - `sender` must have a balance of at least `amount`. - the caller must have allowance for ``sender``'s tokens of at least `amount`."
      }
    },
    "version": 1
  },
  "userdoc": {
    "kind": "user",
    "methods": {},
    "version": 1
  }
}